{
  "_format": "hh-sol-artifact-1",
  "contractName": "CrowdFunding",
  "sourceName": "contracts/CrowdFunding.sol",
  "abi": [
    {
      "inputs": [
        {
          "internalType": "uint256",
          "name": "",
          "type": "uint256"
        }
      ],
      "name": "campaigns",
      "outputs": [
        {
          "internalType": "address",
          "name": "owner",
          "type": "address"
        },
        {
          "internalType": "string",
          "name": "title",
          "type": "string"
        },
        {
          "internalType": "string",
          "name": "description",
          "type": "string"
        },
        {
          "internalType": "uint256",
          "name": "target",
          "type": "uint256"
        },
        {
          "internalType": "uint256",
          "name": "deadline",
          "type": "uint256"
        },
        {
          "internalType": "uint256",
          "name": "amountCollected",
          "type": "uint256"
        }
      ],
      "stateMutability": "view",
      "type": "function"
    },
    {
      "inputs": [
        {
          "internalType": "address",
          "name": "_owner",
          "type": "address"
        },
        {
          "internalType": "string",
          "name": "_title",
          "type": "string"
        },
        {
          "internalType": "string",
          "name": "_description",
          "type": "string"
        },
        {
          "internalType": "uint256",
          "name": "_target",
          "type": "uint256"
        },
        {
          "internalType": "uint256",
          "name": "_deadline",
          "type": "uint256"
        }
      ],
      "name": "createCampaign",
      "outputs": [
        {
          "internalType": "uint256",
          "name": "",
          "type": "uint256"
        }
      ],
      "stateMutability": "nonpayable",
      "type": "function"
    },
    {
      "inputs": [
        {
          "internalType": "uint256",
          "name": "_id",
          "type": "uint256"
        }
      ],
      "name": "donateToCampaign",
      "outputs": [],
      "stateMutability": "payable",
      "type": "function"
    },
    {
      "inputs": [],
      "name": "getCampaigns",
      "outputs": [
        {
          "components": [
            {
              "internalType": "address",
              "name": "owner",
              "type": "address"
            },
            {
              "internalType": "string",
              "name": "title",
              "type": "string"
            },
            {
              "internalType": "string",
              "name": "description",
              "type": "string"
            },
            {
              "internalType": "uint256",
              "name": "target",
              "type": "uint256"
            },
            {
              "internalType": "uint256",
              "name": "deadline",
              "type": "uint256"
            },
            {
              "internalType": "uint256",
              "name": "amountCollected",
              "type": "uint256"
            },
            {
              "internalType": "address[]",
              "name": "donators",
              "type": "address[]"
            },
            {
              "internalType": "uint256[]",
              "name": "donations",
              "type": "uint256[]"
            }
          ],
          "internalType": "struct CrowdFunding.Campaign[]",
          "name": "",
          "type": "tuple[]"
        }
      ],
      "stateMutability": "view",
      "type": "function"
    },
    {
      "inputs": [
        {
          "internalType": "uint256",
          "name": "_id",
          "type": "uint256"
        }
      ],
      "name": "getDonators",
      "outputs": [
        {
          "internalType": "address[]",
          "name": "",
          "type": "address[]"
        },
        {
          "internalType": "uint256[]",
          "name": "",
          "type": "uint256[]"
        }
      ],
      "stateMutability": "view",
      "type": "function"
    },
    {
      "inputs": [],
      "name": "numberOfCampaigns",
      "outputs": [
        {
          "internalType": "uint256",
          "name": "",
          "type": "uint256"
        }
      ],
      "stateMutability": "view",
      "type": "function"
    }
  ],
  "bytecode": "0x6080604052600060015534801561001557600080fd5b506116b9806100256000396000f3fe6080604052600436106100555760003560e01c8063075843c31461005a57806307ca140d146100975780630fa91fa9146100c2578063141961bc1461010057806342a4fda814610142578063a6b036331461015e575b600080fd5b34801561006657600080fd5b50610081600480360381019061007c9190610bc6565b610189565b60405161008e9190610c88565b60405180910390f35b3480156100a357600080fd5b506100ac610257565b6040516100b99190610c88565b60405180910390f35b3480156100ce57600080fd5b506100e960048036038101906100e49190610ca3565b61025d565b6040516100f7929190610e4c565b60405180910390f35b34801561010c57600080fd5b5061012760048036038101906101229190610ca3565b61036d565b60405161013996959493929190610f11565b60405180910390f35b61015c60048036038101906101579190610ca3565b6104d9565b005b34801561016a57600080fd5b50610173610639565b604051610180919061122f565b60405180910390f35b60008060008060015481526020019081526020016000209050868160000160006101000a81548173ffffffffffffffffffffffffffffffffffffffff021916908373ffffffffffffffffffffffffffffffffffffffff160217905550858160010190816101f6919061145d565b5084816002019081610208919061145d565b5083816003018190555082816004018190555060008160050181905550600160008154809291906102389061155e565b91905055506001805461024b91906115a6565b91505095945050505050565b60015481565b6060806000808481526020019081526020016000206006016000808581526020019081526020016000206007018180548060200260200160405190810160405280929190818152602001828054801561030b57602002820191906000526020600020905b8160009054906101000a900473ffffffffffffffffffffffffffffffffffffffff1673ffffffffffffffffffffffffffffffffffffffff16815260200190600101908083116102c1575b505050505091508080548060200260200160405190810160405280929190818152602001828054801561035d57602002820191906000526020600020905b815481526020019060010190808311610349575b5050505050905091509150915091565b60006020528060005260406000206000915090508060000160009054906101000a900473ffffffffffffffffffffffffffffffffffffffff16908060010180546103b690611280565b80601f01602080910402602001604051908101604052809291908181526020018280546103e290611280565b801561042f5780601f106104045761010080835404028352916020019161042f565b820191906000526020600020905b81548152906001019060200180831161041257829003601f168201915b50505050509080600201805461044490611280565b80601f016020809104026020016040519081016040528092919081815260200182805461047090611280565b80156104bd5780601f10610492576101008083540402835291602001916104bd565b820191906000526020600020905b8154815290600101906020018083116104a057829003601f168201915b5050505050908060030154908060040154908060050154905086565b60003490506000806000848152602001908152602001600020905080600601339080600181540180825580915050600190039060005260206000200160009091909190916101000a81548173ffffffffffffffffffffffffffffffffffffffff021916908373ffffffffffffffffffffffffffffffffffffffff1602179055508060070182908060018154018082558091505060019003906000526020600020016000909190919091505560008160000160009054906101000a900473ffffffffffffffffffffffffffffffffffffffff1673ffffffffffffffffffffffffffffffffffffffff16836040516105ce9061160b565b60006040518083038185875af1925050503d806000811461060b576040519150601f19603f3d011682016040523d82523d6000602084013e610610565b606091505b5050905080156106335782826005015461062a9190611620565b82600501819055505b50505050565b6060600060015467ffffffffffffffff81111561065957610658610a65565b5b60405190808252806020026020018201604052801561069257816020015b61067f61097d565b8152602001906001900390816106775790505b50905060005b600154811015610975576000806000838152602001908152602001600020905080604051806101000160405290816000820160009054906101000a900473ffffffffffffffffffffffffffffffffffffffff1673ffffffffffffffffffffffffffffffffffffffff1673ffffffffffffffffffffffffffffffffffffffff16815260200160018201805461072b90611280565b80601f016020809104026020016040519081016040528092919081815260200182805461075790611280565b80156107a45780601f10610779576101008083540402835291602001916107a4565b820191906000526020600020905b81548152906001019060200180831161078757829003601f168201915b505050505081526020016002820180546107bd90611280565b80601f01602080910402602001604051908101604052809291908181526020018280546107e990611280565b80156108365780601f1061080b57610100808354040283529160200191610836565b820191906000526020600020905b81548152906001019060200180831161081957829003601f168201915b50505050508152602001600382015481526020016004820154815260200160058201548152602001600682018054806020026020016040519081016040528092919081815260200182805480156108e257602002820191906000526020600020905b8160009054906101000a900473ffffffffffffffffffffffffffffffffffffffff1673ffffffffffffffffffffffffffffffffffffffff1681526020019060010190808311610898575b505050505081526020016007820180548060200260200160405190810160405280929190818152602001828054801561093a57602002820191906000526020600020905b815481526020019060010190808311610926575b50505050508152505083838151811061095657610955611654565b5b602002602001018190525050808061096d9061155e565b915050610698565b508091505090565b604051806101000160405280600073ffffffffffffffffffffffffffffffffffffffff168152602001606081526020016060815260200160008152602001600081526020016000815260200160608152602001606081525090565b6000604051905090565b600080fd5b600080fd5b600073ffffffffffffffffffffffffffffffffffffffff82169050919050565b6000610a17826109ec565b9050919050565b610a2781610a0c565b8114610a3257600080fd5b50565b600081359050610a4481610a1e565b92915050565b600080fd5b600080fd5b6000601f19601f8301169050919050565b7f4e487b7100000000000000000000000000000000000000000000000000000000600052604160045260246000fd5b610a9d82610a54565b810181811067ffffffffffffffff82111715610abc57610abb610a65565b5b80604052505050565b6000610acf6109d8565b9050610adb8282610a94565b919050565b600067ffffffffffffffff821115610afb57610afa610a65565b5b610b0482610a54565b9050602081019050919050565b82818337600083830152505050565b6000610b33610b2e84610ae0565b610ac5565b905082815260208101848484011115610b4f57610b4e610a4f565b5b610b5a848285610b11565b509392505050565b600082601f830112610b7757610b76610a4a565b5b8135610b87848260208601610b20565b91505092915050565b6000819050919050565b610ba381610b90565b8114610bae57600080fd5b50565b600081359050610bc081610b9a565b92915050565b600080600080600060a08688031215610be257610be16109e2565b5b6000610bf088828901610a35565b955050602086013567ffffffffffffffff811115610c1157610c106109e7565b5b610c1d88828901610b62565b945050604086013567ffffffffffffffff811115610c3e57610c3d6109e7565b5b610c4a88828901610b62565b9350506060610c5b88828901610bb1565b9250506080610c6c88828901610bb1565b9150509295509295909350565b610c8281610b90565b82525050565b6000602082019050610c9d6000830184610c79565b92915050565b600060208284031215610cb957610cb86109e2565b5b6000610cc784828501610bb1565b91505092915050565b600081519050919050565b600082825260208201905092915050565b6000819050602082019050919050565b610d0581610a0c565b82525050565b6000610d178383610cfc565b60208301905092915050565b6000602082019050919050565b6000610d3b82610cd0565b610d458185610cdb565b9350610d5083610cec565b8060005b83811015610d81578151610d688882610d0b565b9750610d7383610d23565b925050600181019050610d54565b5085935050505092915050565b600081519050919050565b600082825260208201905092915050565b6000819050602082019050919050565b610dc381610b90565b82525050565b6000610dd58383610dba565b60208301905092915050565b6000602082019050919050565b6000610df982610d8e565b610e038185610d99565b9350610e0e83610daa565b8060005b83811015610e3f578151610e268882610dc9565b9750610e3183610de1565b925050600181019050610e12565b5085935050505092915050565b60006040820190508181036000830152610e668185610d30565b90508181036020830152610e7a8184610dee565b90509392505050565b610e8c81610a0c565b82525050565b600081519050919050565b600082825260208201905092915050565b60005b83811015610ecc578082015181840152602081019050610eb1565b60008484015250505050565b6000610ee382610e92565b610eed8185610e9d565b9350610efd818560208601610eae565b610f0681610a54565b840191505092915050565b600060c082019050610f266000830189610e83565b8181036020830152610f388188610ed8565b90508181036040830152610f4c8187610ed8565b9050610f5b6060830186610c79565b610f686080830185610c79565b610f7560a0830184610c79565b979650505050505050565b600081519050919050565b600082825260208201905092915050565b6000819050602082019050919050565b600082825260208201905092915050565b6000610fc882610e92565b610fd28185610fac565b9350610fe2818560208601610eae565b610feb81610a54565b840191505092915050565b600082825260208201905092915050565b600061101282610cd0565b61101c8185610ff6565b935061102783610cec565b8060005b8381101561105857815161103f8882610d0b565b975061104a83610d23565b92505060018101905061102b565b5085935050505092915050565b600082825260208201905092915050565b600061108182610d8e565b61108b8185611065565b935061109683610daa565b8060005b838110156110c75781516110ae8882610dc9565b97506110b983610de1565b92505060018101905061109a565b5085935050505092915050565b6000610100830160008301516110ed6000860182610cfc565b50602083015184820360208601526111058282610fbd565b9150506040830151848203604086015261111f8282610fbd565b91505060608301516111346060860182610dba565b5060808301516111476080860182610dba565b5060a083015161115a60a0860182610dba565b5060c083015184820360c08601526111728282611007565b91505060e083015184820360e086015261118c8282611076565b9150508091505092915050565b60006111a583836110d4565b905092915050565b6000602082019050919050565b60006111c582610f80565b6111cf8185610f8b565b9350836020820285016111e185610f9c565b8060005b8581101561121d57848403895281516111fe8582611199565b9450611209836111ad565b925060208a019950506001810190506111e5565b50829750879550505050505092915050565b6000602082019050818103600083015261124981846111ba565b905092915050565b7f4e487b7100000000000000000000000000000000000000000000000000000000600052602260045260246000fd5b6000600282049050600182168061129857607f821691505b6020821081036112ab576112aa611251565b5b50919050565b60008190508160005260206000209050919050565b60006020601f8301049050919050565b600082821b905092915050565b6000600883026113137fffffffffffffffffffffffffffffffffffffffffffffffffffffffffffffffff826112d6565b61131d86836112d6565b95508019841693508086168417925050509392505050565b6000819050919050565b600061135a61135561135084610b90565b611335565b610b90565b9050919050565b6000819050919050565b6113748361133f565b61138861138082611361565b8484546112e3565b825550505050565b600090565b61139d611390565b6113a881848461136b565b505050565b5b818110156113cc576113c1600082611395565b6001810190506113ae565b5050565b601f821115611411576113e2816112b1565b6113eb846112c6565b810160208510156113fa578190505b61140e611406856112c6565b8301826113ad565b50505b505050565b600082821c905092915050565b600061143460001984600802611416565b1980831691505092915050565b600061144d8383611423565b9150826002028217905092915050565b61146682610e92565b67ffffffffffffffff81111561147f5761147e610a65565b5b6114898254611280565b6114948282856113d0565b600060209050601f8311600181146114c757600084156114b5578287015190505b6114bf8582611441565b865550611527565b601f1984166114d5866112b1565b60005b828110156114fd578489015182556001820191506020850194506020810190506114d8565b8683101561151a5784890151611516601f891682611423565b8355505b6001600288020188555050505b505050505050565b7f4e487b7100000000000000000000000000000000000000000000000000000000600052601160045260246000fd5b600061156982610b90565b91507fffffffffffffffffffffffffffffffffffffffffffffffffffffffffffffffff820361159b5761159a61152f565b5b600182019050919050565b60006115b182610b90565b91506115bc83610b90565b92508282039050818111156115d4576115d361152f565b5b92915050565b600081905092915050565b50565b60006115f56000836115da565b9150611600826115e5565b600082019050919050565b6000611616826115e8565b9150819050919050565b600061162b82610b90565b915061163683610b90565b925082820190508082111561164e5761164d61152f565b5b92915050565b7f4e487b7100000000000000000000000000000000000000000000000000000000600052603260045260246000fdfea2646970667358221220b46b2e05c9df0fe3a1c2fc8e87a0d6b48768b726ef8b4c5fde069a22febd360464736f6c63430008120033",
  "linkReferences": {},
  "deployedLinkReferences": {}
}